{
  "contractName": "RealitioArbitratorProxy",
  "abi": [
    {
      "constant": true,
      "inputs": [],
      "name": "arbitratorExtraData",
      "outputs": [
        {
          "name": "",
          "type": "bytes"
        }
      ],
      "payable": false,
      "stateMutability": "view",
      "type": "function"
    },
    {
      "constant": true,
      "inputs": [
        {
          "name": "",
          "type": "bytes32"
        }
      ],
      "name": "questionIDToDisputer",
      "outputs": [
        {
          "name": "",
          "type": "address"
        }
      ],
      "payable": false,
      "stateMutability": "view",
      "type": "function"
    },
    {
      "constant": false,
      "inputs": [
        {
          "name": "_disputeID",
          "type": "uint256"
        },
        {
          "name": "_ruling",
          "type": "uint256"
        }
      ],
      "name": "rule",
      "outputs": [],
      "payable": false,
      "stateMutability": "nonpayable",
      "type": "function"
    },
    {
      "constant": true,
      "inputs": [],
      "name": "arbitrator",
      "outputs": [
        {
          "name": "",
          "type": "address"
        }
      ],
      "payable": false,
      "stateMutability": "view",
      "type": "function"
    },
    {
      "constant": true,
      "inputs": [
        {
          "name": "",
          "type": "bytes32"
        }
      ],
      "name": "questionIDToAnswer",
      "outputs": [
        {
          "name": "",
          "type": "bytes32"
        }
      ],
      "payable": false,
      "stateMutability": "view",
      "type": "function"
    },
    {
      "constant": true,
      "inputs": [],
      "name": "realitio",
      "outputs": [
        {
          "name": "",
          "type": "address"
        }
      ],
      "payable": false,
      "stateMutability": "view",
      "type": "function"
    },
    {
      "constant": true,
      "inputs": [
        {
          "name": "",
          "type": "bytes32"
        }
      ],
      "name": "questionIDToRuled",
      "outputs": [
        {
          "name": "",
          "type": "bool"
        }
      ],
      "payable": false,
      "stateMutability": "view",
      "type": "function"
    },
    {
      "constant": true,
      "inputs": [
        {
          "name": "",
          "type": "uint256"
        }
      ],
      "name": "disputeIDToQuestionID",
      "outputs": [
        {
          "name": "",
          "type": "bytes32"
        }
      ],
      "payable": false,
      "stateMutability": "view",
      "type": "function"
    },
    {
      "inputs": [
        {
          "name": "_arbitrator",
          "type": "address"
        },
        {
          "name": "_arbitratorExtraData",
          "type": "bytes"
        },
        {
          "name": "_realitio",
          "type": "address"
        },
        {
          "name": "_metaEvidence",
          "type": "string"
        }
      ],
      "payable": false,
      "stateMutability": "nonpayable",
      "type": "constructor"
    },
    {
      "anonymous": false,
      "inputs": [
        {
          "indexed": true,
          "name": "_metaEvidenceID",
          "type": "uint256"
        },
        {
          "indexed": false,
          "name": "_evidence",
          "type": "string"
        }
      ],
      "name": "MetaEvidence",
      "type": "event"
    },
    {
      "anonymous": false,
      "inputs": [
        {
          "indexed": true,
          "name": "_arbitrator",
          "type": "address"
        },
        {
          "indexed": true,
          "name": "_disputeID",
          "type": "uint256"
        },
        {
          "indexed": false,
          "name": "_metaEvidenceID",
          "type": "uint256"
        },
        {
          "indexed": false,
          "name": "_evidenceGroupID",
          "type": "uint256"
        }
      ],
      "name": "Dispute",
      "type": "event"
    },
    {
      "anonymous": false,
      "inputs": [
        {
          "indexed": true,
          "name": "_arbitrator",
          "type": "address"
        },
        {
          "indexed": true,
          "name": "_evidenceGroupID",
          "type": "uint256"
        },
        {
          "indexed": true,
          "name": "_party",
          "type": "address"
        },
        {
          "indexed": false,
          "name": "_evidence",
          "type": "string"
        }
      ],
      "name": "Evidence",
      "type": "event"
    },
    {
      "anonymous": false,
      "inputs": [
        {
          "indexed": true,
          "name": "_arbitrator",
          "type": "address"
        },
        {
          "indexed": true,
          "name": "_disputeID",
          "type": "uint256"
        },
        {
          "indexed": false,
          "name": "_ruling",
          "type": "uint256"
        }
      ],
      "name": "Ruling",
      "type": "event"
    },
    {
      "constant": false,
      "inputs": [
        {
          "name": "_questionID",
          "type": "bytes32"
        },
        {
          "name": "_maxPrevious",
          "type": "uint256"
        }
      ],
      "name": "requestArbitration",
      "outputs": [],
      "payable": true,
      "stateMutability": "payable",
      "type": "function"
    },
    {
      "constant": false,
      "inputs": [
        {
          "name": "_questionID",
          "type": "bytes32"
        },
        {
          "name": "_lastHistoryHash",
          "type": "bytes32"
        },
        {
          "name": "_lastAnswerOrCommitmentID",
          "type": "bytes32"
        },
        {
          "name": "_lastBond",
          "type": "uint256"
        },
        {
          "name": "_lastAnswerer",
          "type": "address"
        },
        {
          "name": "_isCommitment",
          "type": "bool"
        }
      ],
      "name": "reportAnswer",
      "outputs": [],
      "payable": false,
      "stateMutability": "nonpayable",
      "type": "function"
    },
    {
      "constant": true,
      "inputs": [
        {
          "name": "_questionID",
          "type": "bytes32"
        }
      ],
      "name": "getDisputeFee",
      "outputs": [
        {
          "name": "fee",
          "type": "uint256"
        }
      ],
      "payable": false,
      "stateMutability": "view",
      "type": "function"
    }
  ],
  "bytecode": "0x608060405234801561001057600080fd5b50604051610deb380380610deb833981016040908152815160208084015192840151606085015160008054600160a060020a031916600160a060020a03861617905593850180519395909491939101918591859161007391600191840190610133565b505060028054600160a060020a031916600160a060020a0385161790555060408051602080825283518183015283516000937f61606860eb6c87306811e2695215385101daab53bd6ab4e9f9049aead9363c7d938693909283928301918501908083838a5b838110156100f05781810151838201526020016100d8565b50505050905090810190601f16801561011d5780820380516001836020036101000a031916815260200191505b509250505060405180910390a2505050506101ce565b828054600181600116156101000203166002900490600052602060002090601f016020900481019282601f1061017457805160ff19168380011785556101a1565b828001600101855582156101a1579182015b828111156101a1578251825591602001919060010190610186565b506101ad9291506101b1565b5090565b6101cb91905b808211156101ad57600081556001016101b7565b90565b610c0e806101dd6000396000f3006080604052600436106100955763ffffffff60e060020a6000350416630c7ac7b6811461009a5780632c6bb04414610124578063311a6c56146101585780633f37773f146101755780636cc6cde1146101a7578063888dcad3146101bc578063a22352e2146101e6578063a829c3d1146101fe578063bc8802a21461020c578063cc3ea6fa14610221578063d521aa9f1461024d575b600080fd5b3480156100a657600080fd5b506100af610265565b6040805160208082528351818301528351919283929083019185019080838360005b838110156100e95781810151838201526020016100d1565b50505050905090810190601f1680156101165780820380516001836020036101000a031916815260200191505b509250505060405180910390f35b34801561013057600080fd5b5061013c6004356102f2565b60408051600160a060020a039092168252519081900360200190f35b34801561016457600080fd5b5061017360043560243561030d565b005b34801561018157600080fd5b50610173600435602435604435606435600160a060020a036084351660a43515156103c5565b3480156101b357600080fd5b5061013c61067d565b3480156101c857600080fd5b506101d460043561068c565b60408051918252519081900360200190f35b3480156101f257600080fd5b506101d460043561069e565b610173600435602435610796565b34801561021857600080fd5b5061013c61098e565b34801561022d57600080fd5b5061023960043561099d565b604080519115158252519081900360200190f35b34801561025957600080fd5b506101d46004356109b2565b60018054604080516020600284861615610100026000190190941693909304601f810184900484028201840190925281815292918301828280156102ea5780601f106102bf576101008083540402835291602001916102ea565b820191906000526020600020905b8154815290600101906020018083116102cd57829003601f168201915b505050505081565b600460205260009081526040902054600160a060020a031681565b600054600160a060020a03163314610380576040805160e560020a62461bcd02815260206004820152602560248201527f43616e206f6e6c792062652063616c6c65642062792074686520617262697472604482015260d960020a6430ba37b91702606482015290519081900360840190fd5b604080518281529051839133917f394027a5fa6e098a1191094d1719d6929b9abc535fcc0c8f448d6a4e756222769181900360200190a36103c182826109c4565b5050565b604080518681526020808201879052818301869052606060020a600160a060020a0380871691909102606084015260f860020a851515026074840152835192839003607501832060025460e060020a6382ffa9f7028552600485018c905294519094909116926382ffa9f79260248083019391928290030181600087803b15801561044f57600080fd5b505af1158015610463573d6000803e3d6000fd5b505050506040513d602081101561047957600080fd5b50511461052b576040805160e560020a62461bcd02815260206004820152606360248201527f5468652068617368206f662074686520686973746f727920706172616d65746560448201527f727320737570706c69656420646f6573206e6f74206d6174636820746865206f60648201527f6e652073746f72656420696e20746865205265616c6974696f20636f6e747261608482015260e960020a6231ba170260a482015290519081900360c40190fd5b60008681526006602052604090205460ff1615156105a0576040805160e560020a62461bcd02815260206004820152602160248201527f5468652061726269747261746f7220686173206e6f742072756c656420796574604482015260f960020a601702606482015290519081900360840190fd5b600254600087815260056020526040902054600160a060020a039091169063fe92049d9088906105d38289898989610a19565b6040805160e060020a63ffffffff871602815260048101949094526024840192909252600160a060020a0316604483015251606480830192600092919082900301818387803b15801561062557600080fd5b505af1158015610639573d6000803e3d6000fd5b505050600096875250506004602090815260408087208054600160a060020a0319169055600582528087208790556006909152909420805460ff1916905550505050565b600054600160a060020a031681565b60056020526000908152604090205481565b6000805460405160e060020a63f7434ea90281526020600482019081526001805460026000198284161561010002019091160460248401819052600160a060020a039094169363f7434ea9939192918291604490910190849080156107445780601f1061071957610100808354040283529160200191610744565b820191906000526020600020905b81548152906001019060200180831161072757829003601f168201915b505092505050602060405180830381600087803b15801561076457600080fd5b505af1158015610778573d6000803e3d6000fd5b505050506040513d602081101561078e57600080fd5b505192915050565b600080546040805160e060020a63c13517e10281526001608060020a0360048201818152602483019384526001805460026000198284161561010002019091160460448501819052600160a060020a039096169563c13517e195349592939290916064909101908490801561084c5780601f106108215761010080835404028352916020019161084c565b820191906000526020600020905b81548152906001019060200180831161082f57829003601f168201915b505093505050506020604051808303818588803b15801561086c57600080fd5b505af1158015610880573d6000803e3d6000fd5b50505050506040513d602081101561089757600080fd5b505160008181526003602090815260408083208790558683526004918290528083208054600160a060020a03191633908117909155600254825160e060020a63f6a94ecb0281529384018990526024840191909152604483018790529051939450600160a060020a03169263f6a94ecb9260648084019391929182900301818387803b15801561092657600080fd5b505af115801561093a573d6000803e3d6000fd5b5050600080546040805183815260208101939093528051869550600160a060020a0390921693507f74baab670a4015ab2f1b467c5252a96141a2573f2908e58a92081e80d3cfde3d928290030190a3505050565b600254600160a060020a031681565b60066020526000908152604090205460ff1681565b60036020526000908152604090205481565b80156109d357600181036109d7565b6000195b600083815260036020818152604080842080548552600583528185209590955584548452600682528320805460ff191660011790559482529093529190915550565b60008080808080881515610a305760009350610b96565b8615610b8e576002546040805160e060020a63839df945028152600481018d90529051600160a060020a039092169163839df945916024808201926060929091908290030181600087803b158015610a8757600080fd5b505af1158015610a9b573d6000803e3d6000fd5b505050506040513d6060811015610ab157600080fd5b508051602082015160409092015190945090925090508115610ad95780945060019350610b89565b63ffffffff42811690841610610b84576040805160e560020a62461bcd02815260206004820152605960248201527f4172626974726174696f6e2063616e6e6f7420626520646f6e6520756e74696c60448201527f20746865206c61737420616e73776572657220686173206861642074696d65206064820152603960020a783a37903932bb32b0b61034ba399031b7b6b6b4ba36b2b73a1702608482015290519081900360a40190fd5b600093505b610b96565b899450600193505b838015610bb0575060008b81526005602052604090205485145b610bd15760008b815260046020526040902054600160a060020a0316610bd3565b875b9b9a50505050505050505050505600a165627a7a72305820dc4c120f932fd7f0b625223c1667d5283a08a5c8d8e2c8740e81dee39fecdb490029",
  "source": "/**\n *  https://contributing.kleros.io/smart-contract-workflow\n *  @reviewers: []\n *  @auditors: []\n *  @bounties: []\n *  @deployments: []\n */\n\npragma solidity ^0.4.24;\n\nimport { Arbitrable, Arbitrator } from \"../arbitration/Arbitrable.sol\";\nimport { Realitio } from \"@realitio/realitio-contracts/truffle/contracts/Realitio.sol\";\n\n/**\n *  @title RealitioArbitratorProxy\n *  @author Enrique Piqueras - <enrique@kleros.io>\n *  @dev A Realitio arbitrator that is just a proxy for an ERC792 arbitrator.\n */\ncontract RealitioArbitratorProxy is Arbitrable {\n    /* Storage */\n\n    Realitio public realitio;\n    mapping(uint => bytes32) public disputeIDToQuestionID;\n    mapping(bytes32 => address) public questionIDToDisputer;\n    mapping(bytes32 => bytes32) public questionIDToAnswer;\n    mapping(bytes32 => bool) public questionIDToRuled;\n\n    /* Constructor */\n\n    /** @dev Constructs the RealitioArbitratorProxy contract.\n     *  @param _arbitrator The address of the ERC792 arbitrator.\n     *  @param _arbitratorExtraData The extra data used to raise a dispute in the ERC792 arbitrator.\n     *  @param _realitio The address of the Realitio contract.\n     *  @param _metaEvidence The URI of the meta evidence file.\n     */\n    constructor(\n        Arbitrator _arbitrator,\n        bytes _arbitratorExtraData,\n        Realitio _realitio,\n        string _metaEvidence\n    ) Arbitrable(_arbitrator, _arbitratorExtraData) public {\n        realitio = _realitio;\n        emit MetaEvidence(0, _metaEvidence);\n    }\n\n    /* External */\n\n    /** @dev Raise a dispute from a specified question.\n     *  @param _questionID The ID of the question.\n     *  @param _maxPrevious If specified, reverts if a bond higher than this was submitted after you sent your transaction.\n     */\n    function requestArbitration(bytes32 _questionID, uint _maxPrevious) external payable {\n        uint disputeID = arbitrator.createDispute.value(msg.value)((2 ** 128) - 1, arbitratorExtraData);\n        disputeIDToQuestionID[disputeID] = _questionID;\n        questionIDToDisputer[_questionID] = msg.sender;\n        realitio.notifyOfArbitrationRequest(_questionID, msg.sender, _maxPrevious);\n        emit Dispute(arbitrator, disputeID, 0, 0);\n    }\n\n    /** @dev Report the answer to a specified question from the ERC792 arbitrator to the Realitio contract.\n     *  @param _questionID The ID of the question.\n     *  @param _lastHistoryHash The history hash given with the last answer to the question in the Realitio contract.\n     *  @param _lastAnswerOrCommitmentID The last answer given, or its commitment ID if it was a commitment, to the question in the Realitio contract.\n     *  @param _lastBond The bond paid for the last answer to the question in the Realitio contract.\n     *  @param _lastAnswerer The last answerer to the question in the Realitio contract.\n     *  @param _isCommitment Wether the last answer to the question in the Realitio contract used commit or reveal or not. True if it did, false otherwise.\n     */\n    function reportAnswer(\n        bytes32 _questionID,\n        bytes32 _lastHistoryHash,\n        bytes32 _lastAnswerOrCommitmentID,\n        uint _lastBond,\n        address _lastAnswerer,\n        bool _isCommitment\n    ) external {\n        require(\n            realitio.getHistoryHash(_questionID) == keccak256(_lastHistoryHash, _lastAnswerOrCommitmentID, _lastBond, _lastAnswerer, _isCommitment),\n            \"The hash of the history parameters supplied does not match the one stored in the Realitio contract.\"\n        );\n        require(questionIDToRuled[_questionID], \"The arbitrator has not ruled yet.\");\n\n        realitio.submitAnswerByArbitrator(\n            _questionID,\n            questionIDToAnswer[_questionID],\n            computeWinner(_questionID, _lastAnswerOrCommitmentID, _lastBond, _lastAnswerer, _isCommitment)\n        );\n\n        delete questionIDToDisputer[_questionID];\n        delete questionIDToAnswer[_questionID];\n        delete questionIDToRuled[_questionID];\n    }\n\n    /* External Views */\n\n    /** @dev Get the fee for a dispute from a specified question.\n     *  @param _questionID The ID of the question.\n     *  @return fee The dispute's fee.\n     */\n    function getDisputeFee(bytes32 _questionID) external view returns (uint fee) {\n        return arbitrator.arbitrationCost(arbitratorExtraData);\n    }\n\n    /* Internal */\n\n    /** @dev Execute the ruling of a specified dispute.\n     *  @param _disputeID The ID of the dispute in the ERC792 arbitrator.\n     *  @param _ruling The ruling given by the ERC792 arbitrator. Note that 0 is reserved for \"Unable/refused to arbitrate\" and we map it to `bytes32(-1)` which has a similar connotation in Realitio.\n     */\n    function executeRuling(uint _disputeID, uint _ruling) internal {\n        questionIDToAnswer[disputeIDToQuestionID[_disputeID]] = bytes32(_ruling == 0 ? uint(-1) : _ruling - 1);\n        questionIDToRuled[disputeIDToQuestionID[_disputeID]] = true;\n        delete disputeIDToQuestionID[_disputeID];\n    }\n\n    /* Private Views */\n\n    /** @dev Computes the Realitio answerer, of a specified question, that should win. This function is needed to avoid the \"stack too deep error\".\n     *  @param _questionID The ID of the question.\n     *  @param _lastAnswerOrCommitmentID The last answer given, or its commitment ID if it was a commitment, to the question in the Realitio contract.\n     *  @param _lastBond The bond paid for the last answer to the question in the Realitio contract.\n     *  @param _lastAnswerer The last answerer to the question in the Realitio contract.\n     *  @param _isCommitment Wether the last answer to the question in the Realitio contract used commit or reveal or not. True if it did, false otherwise.\n     *  @return winner The computed winner.\n     */\n    function computeWinner(\n        bytes32 _questionID,\n        bytes32 _lastAnswerOrCommitmentID,\n        uint _lastBond,\n        address _lastAnswerer,\n        bool _isCommitment\n    ) private view returns(address winner) {\n        bytes32 lastAnswer;\n        bool isAnswered;\n        if (_lastBond == 0) { // If the question hasn't been answered, nobody is ever right.\n            isAnswered = false;\n        } else if (_isCommitment) {\n            (uint32 revealTS, bool isRevealed, bytes32 revealedAnswer) = realitio.commitments(_lastAnswerOrCommitmentID);\n            if (isRevealed) {\n                lastAnswer = revealedAnswer;\n                isAnswered = true;\n            } else {\n                require(revealTS < uint32(now), \"Arbitration cannot be done until the last answerer has had time to reveal its commitment.\");\n                isAnswered = false;\n            }\n        } else {\n            lastAnswer = _lastAnswerOrCommitmentID;\n            isAnswered = true;\n        }\n\n        return isAnswered && lastAnswer == questionIDToAnswer[_questionID] ? _lastAnswerer : questionIDToDisputer[_questionID];\n    }\n}\n",
  "sourcePath": "/Users/epiqueras/Work/kleros/kleros-interaction/contracts/standard/proxy/RealitioArbitratorProxy.sol",
  "compiler": {
    "name": "solc",
    "version": "0.4.24+commit.e67f0147.Emscripten.clang"
  },
  "schemaVersion": "2.0.1",
  "updatedAt": "2019-02-22T17:43:56.751Z"
}